{
  "_format": "hh3-artifact-1",
  "contractName": "WishlistV3",
  "sourceName": "contracts/WishlistV3.sol",
  "abi": [
    {
      "anonymous": false,
      "inputs": [
        {
          "indexed": true,
          "internalType": "address",
          "name": "owner",
          "type": "address"
        },
        {
          "indexed": true,
          "internalType": "uint256",
          "name": "goalIndex",
          "type": "uint256"
        },
        {
          "indexed": false,
          "internalType": "uint256",
          "name": "addedPower",
          "type": "uint256"
        },
        {
          "indexed": false,
          "internalType": "uint256",
          "name": "newTotalPower",
          "type": "uint256"
        }
      ],
      "name": "DreamPowerIncreased",
      "type": "event"
    },
    {
      "inputs": [
        {
          "internalType": "string",
          "name": "_name",
          "type": "string"
        },
        {
          "internalType": "uint256",
          "name": "_targetAmount",
          "type": "uint256"
        }
      ],
      "name": "addGoal",
      "outputs": [],
      "stateMutability": "nonpayable",
      "type": "function"
    },
    {
      "inputs": [
        {
          "internalType": "address",
          "name": "_owner",
          "type": "address"
        },
        {
          "internalType": "uint256",
          "name": "_goalIndex",
          "type": "uint256"
        }
      ],
      "name": "donate",
      "outputs": [],
      "stateMutability": "payable",
      "type": "function"
    },
    {
      "inputs": [
        {
          "internalType": "address",
          "name": "_owner",
          "type": "address"
        }
      ],
      "name": "getGoals",
      "outputs": [
        {
          "components": [
            {
              "internalType": "string",
              "name": "name",
              "type": "string"
            },
            {
              "internalType": "uint256",
              "name": "targetAmount",
              "type": "uint256"
            },
            {
              "internalType": "uint256",
              "name": "currentAmount",
              "type": "uint256"
            },
            {
              "internalType": "uint256",
              "name": "dreamPower",
              "type": "uint256"
            },
            {
              "internalType": "bool",
              "name": "isFulfilled",
              "type": "bool"
            },
            {
              "internalType": "uint256",
              "name": "createdAt",
              "type": "uint256"
            }
          ],
          "internalType": "struct WishlistV3.Goal[]",
          "name": "",
          "type": "tuple[]"
        }
      ],
      "stateMutability": "view",
      "type": "function"
    },
    {
      "inputs": [
        {
          "internalType": "address",
          "name": "",
          "type": "address"
        },
        {
          "internalType": "uint256",
          "name": "",
          "type": "uint256"
        }
      ],
      "name": "goals",
      "outputs": [
        {
          "internalType": "string",
          "name": "name",
          "type": "string"
        },
        {
          "internalType": "uint256",
          "name": "targetAmount",
          "type": "uint256"
        },
        {
          "internalType": "uint256",
          "name": "currentAmount",
          "type": "uint256"
        },
        {
          "internalType": "uint256",
          "name": "dreamPower",
          "type": "uint256"
        },
        {
          "internalType": "bool",
          "name": "isFulfilled",
          "type": "bool"
        },
        {
          "internalType": "uint256",
          "name": "createdAt",
          "type": "uint256"
        }
      ],
      "stateMutability": "view",
      "type": "function"
    },
    {
      "inputs": [],
      "name": "totalDreamPower",
      "outputs": [
        {
          "internalType": "uint256",
          "name": "",
          "type": "uint256"
        }
      ],
      "stateMutability": "view",
      "type": "function"
    }
  ],
  "bytecode": "0x6080604052348015600e575f5ffd5b506111178061001c5f395ff3fe608060405260043610610049575f3560e01c80630d88913a1461004d578063a85d879414610075578063c403c2ae1461009f578063cb8cb4a3146100e0578063e69d849d1461011c575b5f5ffd5b348015610058575f5ffd5b50610073600480360381019061006e919061083d565b610138565b005b348015610080575f5ffd5b5061008961022a565b60405161009691906108a6565b60405180910390f35b3480156100aa575f5ffd5b506100c560048036038101906100c09190610919565b610230565b6040516100d7969594939291906109d1565b60405180910390f35b3480156100eb575f5ffd5b5061010660048036038101906101019190610a37565b610313565b6040516101139190610c09565b60405180910390f35b61013660048036038101906101319190610919565b61047c565b005b5f5f3373ffffffffffffffffffffffffffffffffffffffff1673ffffffffffffffffffffffffffffffffffffffff1681526020019081526020015f206040518060c001604052808481526020018381526020015f81526020015f81526020015f1515815260200142815250908060018154018082558091505060019003905f5260205f2090600602015f909190919091505f820151815f0190816101dc9190610e26565b506020820151816001015560408201518160020155606082015181600301556080820151816004015f6101000a81548160ff02191690831515021790555060a0820151816005015550505050565b60015481565b5f602052815f5260405f208181548110610248575f80fd5b905f5260205f2090600602015f9150915050805f01805461026890610c56565b80601f016020809104026020016040519081016040528092919081815260200182805461029490610c56565b80156102df5780601f106102b6576101008083540402835291602001916102df565b820191905f5260205f20905b8154815290600101906020018083116102c257829003601f168201915b505050505090806001015490806002015490806003015490806004015f9054906101000a900460ff16908060050154905086565b60605f5f8373ffffffffffffffffffffffffffffffffffffffff1673ffffffffffffffffffffffffffffffffffffffff1681526020019081526020015f20805480602002602001604051908101604052809291908181526020015f905b82821015610471578382905f5260205f2090600602016040518060c00160405290815f820180546103a090610c56565b80601f01602080910402602001604051908101604052809291908181526020018280546103cc90610c56565b80156104175780601f106103ee57610100808354040283529160200191610417565b820191905f5260205f20905b8154815290600101906020018083116103fa57829003601f168201915b50505050508152602001600182015481526020016002820154815260200160038201548152602001600482015f9054906101000a900460ff1615151515815260200160058201548152505081526020019060010190610370565b505050509050919050565b5f34116104be576040517f08c379a00000000000000000000000000000000000000000000000000000000081526004016104b590610f3f565b60405180910390fd5b5f5f8373ffffffffffffffffffffffffffffffffffffffff1673ffffffffffffffffffffffffffffffffffffffff1681526020019081526020015f2080549050811061053f576040517f08c379a000000000000000000000000000000000000000000000000000000000815260040161053690610fa7565b60405180910390fd5b5f5f5f8473ffffffffffffffffffffffffffffffffffffffff1673ffffffffffffffffffffffffffffffffffffffff1681526020019081526020015f20828154811061058e5761058d610fc5565b5b905f5260205f2090600602019050806004015f9054906101000a900460ff16156105ed576040517f08c379a00000000000000000000000000000000000000000000000000000000081526004016105e49061103c565b60405180910390fd5b34816002015f8282546106009190611087565b9250508190555034816003015f82825461061a9190611087565b925050819055503460015f8282546106329190611087565b925050819055508060010154816002015410610665576001816004015f6101000a81548160ff0219169083151502179055505b818373ffffffffffffffffffffffffffffffffffffffff167f458c367b32ea7223727e3df65789b4715138f76d88501813f8bdd9548500a6ce346001546040516106b09291906110ba565b60405180910390a3505050565b5f604051905090565b5f5ffd5b5f5ffd5b5f5ffd5b5f5ffd5b5f601f19601f8301169050919050565b7f4e487b71000000000000000000000000000000000000000000000000000000005f52604160045260245ffd5b61071c826106d6565b810181811067ffffffffffffffff8211171561073b5761073a6106e6565b5b80604052505050565b5f61074d6106bd565b90506107598282610713565b919050565b5f67ffffffffffffffff821115610778576107776106e6565b5b610781826106d6565b9050602081019050919050565b828183375f83830152505050565b5f6107ae6107a98461075e565b610744565b9050828152602081018484840111156107ca576107c96106d2565b5b6107d584828561078e565b509392505050565b5f82601f8301126107f1576107f06106ce565b5b813561080184826020860161079c565b91505092915050565b5f819050919050565b61081c8161080a565b8114610826575f5ffd5b50565b5f8135905061083781610813565b92915050565b5f5f60408385031215610853576108526106c6565b5b5f83013567ffffffffffffffff8111156108705761086f6106ca565b5b61087c858286016107dd565b925050602061088d85828601610829565b9150509250929050565b6108a08161080a565b82525050565b5f6020820190506108b95f830184610897565b92915050565b5f73ffffffffffffffffffffffffffffffffffffffff82169050919050565b5f6108e8826108bf565b9050919050565b6108f8816108de565b8114610902575f5ffd5b50565b5f81359050610913816108ef565b92915050565b5f5f6040838503121561092f5761092e6106c6565b5b5f61093c85828601610905565b925050602061094d85828601610829565b9150509250929050565b5f81519050919050565b5f82825260208201905092915050565b8281835e5f83830152505050565b5f61098982610957565b6109938185610961565b93506109a3818560208601610971565b6109ac816106d6565b840191505092915050565b5f8115159050919050565b6109cb816109b7565b82525050565b5f60c0820190508181035f8301526109e9818961097f565b90506109f86020830188610897565b610a056040830187610897565b610a126060830186610897565b610a1f60808301856109c2565b610a2c60a0830184610897565b979650505050505050565b5f60208284031215610a4c57610a4b6106c6565b5b5f610a5984828501610905565b91505092915050565b5f81519050919050565b5f82825260208201905092915050565b5f819050602082019050919050565b5f82825260208201905092915050565b5f610aa582610957565b610aaf8185610a8b565b9350610abf818560208601610971565b610ac8816106d6565b840191505092915050565b610adc8161080a565b82525050565b610aeb816109b7565b82525050565b5f60c083015f8301518482035f860152610b0b8282610a9b565b9150506020830151610b206020860182610ad3565b506040830151610b336040860182610ad3565b506060830151610b466060860182610ad3565b506080830151610b596080860182610ae2565b5060a0830151610b6c60a0860182610ad3565b508091505092915050565b5f610b828383610af1565b905092915050565b5f602082019050919050565b5f610ba082610a62565b610baa8185610a6c565b935083602082028501610bbc85610a7c565b805f5b85811015610bf75784840389528151610bd88582610b77565b9450610be383610b8a565b925060208a01995050600181019050610bbf565b50829750879550505050505092915050565b5f6020820190508181035f830152610c218184610b96565b905092915050565b7f4e487b71000000000000000000000000000000000000000000000000000000005f52602260045260245ffd5b5f6002820490506001821680610c6d57607f821691505b602082108103610c8057610c7f610c29565b5b50919050565b5f819050815f5260205f209050919050565b5f6020601f8301049050919050565b5f82821b905092915050565b5f60088302610ce27fffffffffffffffffffffffffffffffffffffffffffffffffffffffffffffffff82610ca7565b610cec8683610ca7565b95508019841693508086168417925050509392505050565b5f819050919050565b5f610d27610d22610d1d8461080a565b610d04565b61080a565b9050919050565b5f819050919050565b610d4083610d0d565b610d54610d4c82610d2e565b848454610cb3565b825550505050565b5f5f905090565b610d6b610d5c565b610d76818484610d37565b505050565b5b81811015610d9957610d8e5f82610d63565b600181019050610d7c565b5050565b601f821115610dde57610daf81610c86565b610db884610c98565b81016020851015610dc7578190505b610ddb610dd385610c98565b830182610d7b565b50505b505050565b5f82821c905092915050565b5f610dfe5f1984600802610de3565b1980831691505092915050565b5f610e168383610def565b9150826002028217905092915050565b610e2f82610957565b67ffffffffffffffff811115610e4857610e476106e6565b5b610e528254610c56565b610e5d828285610d9d565b5f60209050601f831160018114610e8e575f8415610e7c578287015190505b610e868582610e0b565b865550610eed565b601f198416610e9c86610c86565b5f5b82811015610ec357848901518255600182019150602085019450602081019050610e9e565b86831015610ee05784890151610edc601f891682610def565b8355505b6001600288020188555050505b505050505050565b7f53656e6420736f6d6520455448000000000000000000000000000000000000005f82015250565b5f610f29600d83610961565b9150610f3482610ef5565b602082019050919050565b5f6020820190508181035f830152610f5681610f1d565b9050919050565b7f496e76616c696420676f616c00000000000000000000000000000000000000005f82015250565b5f610f91600c83610961565b9150610f9c82610f5d565b602082019050919050565b5f6020820190508181035f830152610fbe81610f85565b9050919050565b7f4e487b71000000000000000000000000000000000000000000000000000000005f52603260045260245ffd5b7f476f616c20616c72656164792066756c66696c6c6564000000000000000000005f82015250565b5f611026601683610961565b915061103182610ff2565b602082019050919050565b5f6020820190508181035f8301526110538161101a565b9050919050565b7f4e487b71000000000000000000000000000000000000000000000000000000005f52601160045260245ffd5b5f6110918261080a565b915061109c8361080a565b92508282019050808211156110b4576110b361105a565b5b92915050565b5f6040820190506110cd5f830185610897565b6110da6020830184610897565b939250505056fea264697066735822122075c32229f3dbecb3f7a34077a6c8ef5528d591a5389134a4e01dd5b63aee19a964736f6c634300081c0033",
  "linkReferences": {},
  "deployedLinkReferences": {},
  "immutableReferences": {},
  "inputSourceName": "project/contracts/WishlistV3.sol",
  "buildInfoId": "solc-0_8_28-9900fd2dd506d101e088a5fd0c76739a88d88084"
}